{
  "contractName": "TestContract",
  "abi": [
    {
      "inputs": [],
      "stateMutability": "nonpayable",
      "type": "constructor"
    },
    {
      "inputs": [],
      "name": "counter",
      "outputs": [
        {
          "internalType": "uint256",
          "name": "",
          "type": "uint256"
        }
      ],
      "stateMutability": "view",
      "type": "function"
    },
    {
      "inputs": [],
      "name": "IncrementCounter",
      "outputs": [],
      "stateMutability": "nonpayable",
      "type": "function"
    }
  ],
  "bytecode": "0x60806040526000805534801561001457600080fd5b5061002361002860201b60201c565b6100c3565b60008081548092919061003a9061007a565b9190505550565b7f4e487b7100000000000000000000000000000000000000000000000000000000600052601160045260246000fd5b6000819050919050565b600061008582610070565b91507fffffffffffffffffffffffffffffffffffffffffffffffffffffffffffffffff8214156100b8576100b7610041565b5b600182019050919050565b610164806100d26000396000f3fe608060405234801561001057600080fd5b50600436106100365760003560e01c80630ffca1dd1461003b57806361bc221a14610045575b600080fd5b610043610063565b005b61004d61007c565b60405161005a919061009b565b60405180910390f35b600080815480929190610075906100e5565b9190505550565b60005481565b6000819050919050565b61009581610082565b82525050565b60006020820190506100b0600083018461008c565b92915050565b7f4e487b7100000000000000000000000000000000000000000000000000000000600052601160045260246000fd5b60006100f082610082565b91507fffffffffffffffffffffffffffffffffffffffffffffffffffffffffffffffff821415610123576101226100b6565b5b60018201905091905056fea26469706673582212204451923fb0285ad5b9c0acb9c95b7f90ded88c1ff830b6e6e17b6b69c1131c6b64736f6c634300080b0033",
  "immutableReferences": {},
  "source": "// SPDX-License-Identifier: MIT\n// Solidity program \npragma solidity >=0.4.22 <0.9.0;\n \ncontract TestContract\n{\n  uint public counter = 0;\n \n  constructor() public\n  {\n    IncrementCounter();\n  }\n \n  function IncrementCounter() public\n  {\n    counter ++;\n  }\n}",
  "sourcePath": "D:\\Authentication-using-blockchain-main\\truffle-metamask\\contracts\\testcontract.sol",
  "compiler": {
    "name": "solc",
    "version": "0.8.11+commit.d7f03943.Emscripten.clang"
  },
  "schemaVersion": "3.4.4",
  "updatedAt": "2022-11-28T10:17:38.830Z",
  "devdoc": {
    "kind": "dev",
    "methods": {},
    "version": 1
  },
  "userdoc": {
    "kind": "user",
    "methods": {},
    "version": 1
  }
}